{
	"data": {
		"bytecode": {
			"linkReferences": {},
			"object": "608060405234801561001057600080fd5b50610e10806100206000396000f3fe608060405234801561001057600080fd5b50600436106100f55760003560e01c80638381f58a11610097578063b67d77c511610066578063b67d77c514610286578063cad0899b146102b6578063e4128fb3146102e6578063f01b7dd214610304576100f5565b80638381f58a146101ea57806385bb7d69146102085780639aa727f614610226578063a391c15b14610256576100f5565b80635d3a1f9d116100d35780635d3a1f9d1461016457806362dd455414610180578063779541621461018a5780638187f846146101ba576100f5565b80631f1bd692146100fa5780632e4c697f146101185780633fb5c1cb14610148575b600080fd5b610102610320565b60405161010f91906106c3565b60405180910390f35b610132600480360381019061012d919061072f565b6103ae565b60405161013f919061077e565b60405180910390f35b610162600480360381019061015d9190610799565b6103c4565b005b61017e600480360381019061017991906108fb565b6103d6565b005b6101886103f8565b005b6101a4600480360381019061019f9190610799565b610443565b6040516101b1919061077e565b60405180910390f35b6101d460048036038101906101cf91906109a2565b61045a565b6040516101e1919061077e565b60405180910390f35b6101f2610472565b6040516101ff919061077e565b60405180910390f35b610210610478565b60405161021d91906109ea565b60405180910390f35b610240600480360381019061023b919061072f565b61048b565b60405161024d919061077e565b60405180910390f35b610270600480360381019061026b919061072f565b6104a1565b60405161027d919061077e565b60405180910390f35b6102a0600480360381019061029b919061072f565b6104b7565b6040516102ad919061077e565b60405180910390f35b6102d060048036038101906102cb919061072f565b6104cd565b6040516102dd919061077e565b60405180910390f35b6102ee6104e3565b6040516102fb9190610a14565b60405180910390f35b61031e60048036038101906103199190610a5b565b610509565b005b6000805461032d90610ab7565b80601f016020809104026020016040519081016040528092919081815260200182805461035990610ab7565b80156103a65780601f1061037b576101008083540402835291602001916103a6565b820191906000526020600020905b81548152906001019060200180831161038957829003601f168201915b505050505081565b600081836103bc9190610c4b565b905092915050565b806001819055506103d361052e565b50565b80600090805190602001906103ec929190610587565b506103f561052e565b50565b33600260006101000a81548173ffffffffffffffffffffffffffffffffffffffff021916908373ffffffffffffffffffffffffffffffffffffffff16021790555061044161052e565b565b6000600154826104539190610c96565b9050919050565b60036020528060005260406000206000915090505481565b60015481565b600260149054906101000a900460ff1681565b600081836104999190610cec565b905092915050565b600081836104af9190610d75565b905092915050565b600081836104c59190610da6565b905092915050565b600081836104db9190610c96565b905092915050565b600260009054906101000a900473ffffffffffffffffffffffffffffffffffffffff1681565b80600260146101000a81548160ff02191690831515021790555061052b61052e565b50565b6001600360003373ffffffffffffffffffffffffffffffffffffffff1673ffffffffffffffffffffffffffffffffffffffff168152602001908152602001600020600082825461057e9190610c96565b92505081905550565b82805461059390610ab7565b90600052602060002090601f0160209004810192826105b557600085556105fc565b82601f106105ce57805160ff19168380011785556105fc565b828001600101855582156105fc579182015b828111156105fb5782518255916020019190600101906105e0565b5b509050610609919061060d565b5090565b5b8082111561062657600081600090555060010161060e565b5090565b600081519050919050565b600082825260208201905092915050565b60005b83811015610664578082015181840152602081019050610649565b83811115610673576000848401525b50505050565b6000601f19601f8301169050919050565b60006106958261062a565b61069f8185610635565b93506106af818560208601610646565b6106b881610679565b840191505092915050565b600060208201905081810360008301526106dd818461068a565b905092915050565b6000604051905090565b600080fd5b600080fd5b6000819050919050565b61070c816106f9565b811461071757600080fd5b50565b60008135905061072981610703565b92915050565b60008060408385031215610746576107456106ef565b5b60006107548582860161071a565b92505060206107658582860161071a565b9150509250929050565b610778816106f9565b82525050565b6000602082019050610793600083018461076f565b92915050565b6000602082840312156107af576107ae6106ef565b5b60006107bd8482850161071a565b91505092915050565b600080fd5b600080fd5b7f4e487b7100000000000000000000000000000000000000000000000000000000600052604160045260246000fd5b61080882610679565b810181811067ffffffffffffffff82111715610827576108266107d0565b5b80604052505050565b600061083a6106e5565b905061084682826107ff565b919050565b600067ffffffffffffffff821115610866576108656107d0565b5b61086f82610679565b9050602081019050919050565b82818337600083830152505050565b600061089e6108998461084b565b610830565b9050828152602081018484840111156108ba576108b96107cb565b5b6108c584828561087c565b509392505050565b600082601f8301126108e2576108e16107c6565b5b81356108f284826020860161088b565b91505092915050565b600060208284031215610911576109106106ef565b5b600082013567ffffffffffffffff81111561092f5761092e6106f4565b5b61093b848285016108cd565b91505092915050565b600073ffffffffffffffffffffffffffffffffffffffff82169050919050565b600061096f82610944565b9050919050565b61097f81610964565b811461098a57600080fd5b50565b60008135905061099c81610976565b92915050565b6000602082840312156109b8576109b76106ef565b5b60006109c68482850161098d565b91505092915050565b60008115159050919050565b6109e4816109cf565b82525050565b60006020820190506109ff60008301846109db565b92915050565b610a0e81610964565b82525050565b6000602082019050610a296000830184610a05565b92915050565b610a38816109cf565b8114610a4357600080fd5b50565b600081359050610a5581610a2f565b92915050565b600060208284031215610a7157610a706106ef565b5b6000610a7f84828501610a46565b91505092915050565b7f4e487b7100000000000000000000000000000000000000000000000000000000600052602260045260246000fd5b60006002820490506001821680610acf57607f821691505b60208210811415610ae357610ae2610a88565b5b50919050565b7f4e487b7100000000000000000000000000000000000000000000000000000000600052601160045260246000fd5b60008160011c9050919050565b6000808291508390505b6001851115610b6f57808604811115610b4b57610b4a610ae9565b5b6001851615610b5a5780820291505b8081029050610b6885610b18565b9450610b2f565b94509492505050565b600082610b885760019050610c44565b81610b965760009050610c44565b8160018114610bac5760028114610bb657610be5565b6001915050610c44565b60ff841115610bc857610bc7610ae9565b5b8360020a915084821115610bdf57610bde610ae9565b5b50610c44565b5060208310610133831016604e8410600b8410161715610c1a5782820a905083811115610c1557610c14610ae9565b5b610c44565b610c278484846001610b25565b92509050818404811115610c3e57610c3d610ae9565b5b81810290505b9392505050565b6000610c56826106f9565b9150610c61836106f9565b9250610c8e7fffffffffffffffffffffffffffffffffffffffffffffffffffffffffffffffff8484610b78565b905092915050565b6000610ca1826106f9565b9150610cac836106f9565b9250827fffffffffffffffffffffffffffffffffffffffffffffffffffffffffffffffff03821115610ce157610ce0610ae9565b5b828201905092915050565b6000610cf7826106f9565b9150610d02836106f9565b9250817fffffffffffffffffffffffffffffffffffffffffffffffffffffffffffffffff0483118215151615610d3b57610d3a610ae9565b5b828202905092915050565b7f4e487b7100000000000000000000000000000000000000000000000000000000600052601260045260246000fd5b6000610d80826106f9565b9150610d8b836106f9565b925082610d9b57610d9a610d46565b5b828204905092915050565b6000610db1826106f9565b9150610dbc836106f9565b925082821015610dcf57610dce610ae9565b5b82820390509291505056fea2646970667358221220e7e26b41b426ceffc188ddb1777d899619f6defb6293e26585a06a60a5b49a1264736f6c63430008090033",
			"opcodes": "PUSH1 0x80 PUSH1 0x40 MSTORE CALLVALUE DUP1 ISZERO PUSH2 0x10 JUMPI PUSH1 0x0 DUP1 REVERT JUMPDEST POP PUSH2 0xE10 DUP1 PUSH2 0x20 PUSH1 0x0 CODECOPY PUSH1 0x0 RETURN INVALID PUSH1 0x80 PUSH1 0x40 MSTORE CALLVALUE DUP1 ISZERO PUSH2 0x10 JUMPI PUSH1 0x0 DUP1 REVERT JUMPDEST POP PUSH1 0x4 CALLDATASIZE LT PUSH2 0xF5 JUMPI PUSH1 0x0 CALLDATALOAD PUSH1 0xE0 SHR DUP1 PUSH4 0x8381F58A GT PUSH2 0x97 JUMPI DUP1 PUSH4 0xB67D77C5 GT PUSH2 0x66 JUMPI DUP1 PUSH4 0xB67D77C5 EQ PUSH2 0x286 JUMPI DUP1 PUSH4 0xCAD0899B EQ PUSH2 0x2B6 JUMPI DUP1 PUSH4 0xE4128FB3 EQ PUSH2 0x2E6 JUMPI DUP1 PUSH4 0xF01B7DD2 EQ PUSH2 0x304 JUMPI PUSH2 0xF5 JUMP JUMPDEST DUP1 PUSH4 0x8381F58A EQ PUSH2 0x1EA JUMPI DUP1 PUSH4 0x85BB7D69 EQ PUSH2 0x208 JUMPI DUP1 PUSH4 0x9AA727F6 EQ PUSH2 0x226 JUMPI DUP1 PUSH4 0xA391C15B EQ PUSH2 0x256 JUMPI PUSH2 0xF5 JUMP JUMPDEST DUP1 PUSH4 0x5D3A1F9D GT PUSH2 0xD3 JUMPI DUP1 PUSH4 0x5D3A1F9D EQ PUSH2 0x164 JUMPI DUP1 PUSH4 0x62DD4554 EQ PUSH2 0x180 JUMPI DUP1 PUSH4 0x77954162 EQ PUSH2 0x18A JUMPI DUP1 PUSH4 0x8187F846 EQ PUSH2 0x1BA JUMPI PUSH2 0xF5 JUMP JUMPDEST DUP1 PUSH4 0x1F1BD692 EQ PUSH2 0xFA JUMPI DUP1 PUSH4 0x2E4C697F EQ PUSH2 0x118 JUMPI DUP1 PUSH4 0x3FB5C1CB EQ PUSH2 0x148 JUMPI JUMPDEST PUSH1 0x0 DUP1 REVERT JUMPDEST PUSH2 0x102 PUSH2 0x320 JUMP JUMPDEST PUSH1 0x40 MLOAD PUSH2 0x10F SWAP2 SWAP1 PUSH2 0x6C3 JUMP JUMPDEST PUSH1 0x40 MLOAD DUP1 SWAP2 SUB SWAP1 RETURN JUMPDEST PUSH2 0x132 PUSH1 0x4 DUP1 CALLDATASIZE SUB DUP2 ADD SWAP1 PUSH2 0x12D SWAP2 SWAP1 PUSH2 0x72F JUMP JUMPDEST PUSH2 0x3AE JUMP JUMPDEST PUSH1 0x40 MLOAD PUSH2 0x13F SWAP2 SWAP1 PUSH2 0x77E JUMP JUMPDEST PUSH1 0x40 MLOAD DUP1 SWAP2 SUB SWAP1 RETURN JUMPDEST PUSH2 0x162 PUSH1 0x4 DUP1 CALLDATASIZE SUB DUP2 ADD SWAP1 PUSH2 0x15D SWAP2 SWAP1 PUSH2 0x799 JUMP JUMPDEST PUSH2 0x3C4 JUMP JUMPDEST STOP JUMPDEST PUSH2 0x17E PUSH1 0x4 DUP1 CALLDATASIZE SUB DUP2 ADD SWAP1 PUSH2 0x179 SWAP2 SWAP1 PUSH2 0x8FB JUMP JUMPDEST PUSH2 0x3D6 JUMP JUMPDEST STOP JUMPDEST PUSH2 0x188 PUSH2 0x3F8 JUMP JUMPDEST STOP JUMPDEST PUSH2 0x1A4 PUSH1 0x4 DUP1 CALLDATASIZE SUB DUP2 ADD SWAP1 PUSH2 0x19F SWAP2 SWAP1 PUSH2 0x799 JUMP JUMPDEST PUSH2 0x443 JUMP JUMPDEST PUSH1 0x40 MLOAD PUSH2 0x1B1 SWAP2 SWAP1 PUSH2 0x77E JUMP JUMPDEST PUSH1 0x40 MLOAD DUP1 SWAP2 SUB SWAP1 RETURN JUMPDEST PUSH2 0x1D4 PUSH1 0x4 DUP1 CALLDATASIZE SUB DUP2 ADD SWAP1 PUSH2 0x1CF SWAP2 SWAP1 PUSH2 0x9A2 JUMP JUMPDEST PUSH2 0x45A JUMP JUMPDEST PUSH1 0x40 MLOAD PUSH2 0x1E1 SWAP2 SWAP1 PUSH2 0x77E JUMP JUMPDEST PUSH1 0x40 MLOAD DUP1 SWAP2 SUB SWAP1 RETURN JUMPDEST PUSH2 0x1F2 PUSH2 0x472 JUMP JUMPDEST PUSH1 0x40 MLOAD PUSH2 0x1FF SWAP2 SWAP1 PUSH2 0x77E JUMP JUMPDEST PUSH1 0x40 MLOAD DUP1 SWAP2 SUB SWAP1 RETURN JUMPDEST PUSH2 0x210 PUSH2 0x478 JUMP JUMPDEST PUSH1 0x40 MLOAD PUSH2 0x21D SWAP2 SWAP1 PUSH2 0x9EA JUMP JUMPDEST PUSH1 0x40 MLOAD DUP1 SWAP2 SUB SWAP1 RETURN JUMPDEST PUSH2 0x240 PUSH1 0x4 DUP1 CALLDATASIZE SUB DUP2 ADD SWAP1 PUSH2 0x23B SWAP2 SWAP1 PUSH2 0x72F JUMP JUMPDEST PUSH2 0x48B JUMP JUMPDEST PUSH1 0x40 MLOAD PUSH2 0x24D SWAP2 SWAP1 PUSH2 0x77E JUMP JUMPDEST PUSH1 0x40 MLOAD DUP1 SWAP2 SUB SWAP1 RETURN JUMPDEST PUSH2 0x270 PUSH1 0x4 DUP1 CALLDATASIZE SUB DUP2 ADD SWAP1 PUSH2 0x26B SWAP2 SWAP1 PUSH2 0x72F JUMP JUMPDEST PUSH2 0x4A1 JUMP JUMPDEST PUSH1 0x40 MLOAD PUSH2 0x27D SWAP2 SWAP1 PUSH2 0x77E JUMP JUMPDEST PUSH1 0x40 MLOAD DUP1 SWAP2 SUB SWAP1 RETURN JUMPDEST PUSH2 0x2A0 PUSH1 0x4 DUP1 CALLDATASIZE SUB DUP2 ADD SWAP1 PUSH2 0x29B SWAP2 SWAP1 PUSH2 0x72F JUMP JUMPDEST PUSH2 0x4B7 JUMP JUMPDEST PUSH1 0x40 MLOAD PUSH2 0x2AD SWAP2 SWAP1 PUSH2 0x77E JUMP JUMPDEST PUSH1 0x40 MLOAD DUP1 SWAP2 SUB SWAP1 RETURN JUMPDEST PUSH2 0x2D0 PUSH1 0x4 DUP1 CALLDATASIZE SUB DUP2 ADD SWAP1 PUSH2 0x2CB SWAP2 SWAP1 PUSH2 0x72F JUMP JUMPDEST PUSH2 0x4CD JUMP JUMPDEST PUSH1 0x40 MLOAD PUSH2 0x2DD SWAP2 SWAP1 PUSH2 0x77E JUMP JUMPDEST PUSH1 0x40 MLOAD DUP1 SWAP2 SUB SWAP1 RETURN JUMPDEST PUSH2 0x2EE PUSH2 0x4E3 JUMP JUMPDEST PUSH1 0x40 MLOAD PUSH2 0x2FB SWAP2 SWAP1 PUSH2 0xA14 JUMP JUMPDEST PUSH1 0x40 MLOAD DUP1 SWAP2 SUB SWAP1 RETURN JUMPDEST PUSH2 0x31E PUSH1 0x4 DUP1 CALLDATASIZE SUB DUP2 ADD SWAP1 PUSH2 0x319 SWAP2 SWAP1 PUSH2 0xA5B JUMP JUMPDEST PUSH2 0x509 JUMP JUMPDEST STOP JUMPDEST PUSH1 0x0 DUP1 SLOAD PUSH2 0x32D SWAP1 PUSH2 0xAB7 JUMP JUMPDEST DUP1 PUSH1 0x1F ADD PUSH1 0x20 DUP1 SWAP2 DIV MUL PUSH1 0x20 ADD PUSH1 0x40 MLOAD SWAP1 DUP2 ADD PUSH1 0x40 MSTORE DUP1 SWAP3 SWAP2 SWAP1 DUP2 DUP2 MSTORE PUSH1 0x20 ADD DUP3 DUP1 SLOAD PUSH2 0x359 SWAP1 PUSH2 0xAB7 JUMP JUMPDEST DUP1 ISZERO PUSH2 0x3A6 JUMPI DUP1 PUSH1 0x1F LT PUSH2 0x37B JUMPI PUSH2 0x100 DUP1 DUP4 SLOAD DIV MUL DUP4 MSTORE SWAP2 PUSH1 0x20 ADD SWAP2 PUSH2 0x3A6 JUMP JUMPDEST DUP3 ADD SWAP2 SWAP1 PUSH1 0x0 MSTORE PUSH1 0x20 PUSH1 0x0 KECCAK256 SWAP1 JUMPDEST DUP2 SLOAD DUP2 MSTORE SWAP1 PUSH1 0x1 ADD SWAP1 PUSH1 0x20 ADD DUP1 DUP4 GT PUSH2 0x389 JUMPI DUP3 SWAP1 SUB PUSH1 0x1F AND DUP3 ADD SWAP2 JUMPDEST POP POP POP POP POP DUP2 JUMP JUMPDEST PUSH1 0x0 DUP2 DUP4 PUSH2 0x3BC SWAP2 SWAP1 PUSH2 0xC4B JUMP JUMPDEST SWAP1 POP SWAP3 SWAP2 POP POP JUMP JUMPDEST DUP1 PUSH1 0x1 DUP2 SWAP1 SSTORE POP PUSH2 0x3D3 PUSH2 0x52E JUMP JUMPDEST POP JUMP JUMPDEST DUP1 PUSH1 0x0 SWAP1 DUP1 MLOAD SWAP1 PUSH1 0x20 ADD SWAP1 PUSH2 0x3EC SWAP3 SWAP2 SWAP1 PUSH2 0x587 JUMP JUMPDEST POP PUSH2 0x3F5 PUSH2 0x52E JUMP JUMPDEST POP JUMP JUMPDEST CALLER PUSH1 0x2 PUSH1 0x0 PUSH2 0x100 EXP DUP2 SLOAD DUP2 PUSH20 0xFFFFFFFFFFFFFFFFFFFFFFFFFFFFFFFFFFFFFFFF MUL NOT AND SWAP1 DUP4 PUSH20 0xFFFFFFFFFFFFFFFFFFFFFFFFFFFFFFFFFFFFFFFF AND MUL OR SWAP1 SSTORE POP PUSH2 0x441 PUSH2 0x52E JUMP JUMPDEST JUMP JUMPDEST PUSH1 0x0 PUSH1 0x1 SLOAD DUP3 PUSH2 0x453 SWAP2 SWAP1 PUSH2 0xC96 JUMP JUMPDEST SWAP1 POP SWAP2 SWAP1 POP JUMP JUMPDEST PUSH1 0x3 PUSH1 0x20 MSTORE DUP1 PUSH1 0x0 MSTORE PUSH1 0x40 PUSH1 0x0 KECCAK256 PUSH1 0x0 SWAP2 POP SWAP1 POP SLOAD DUP2 JUMP JUMPDEST PUSH1 0x1 SLOAD DUP2 JUMP JUMPDEST PUSH1 0x2 PUSH1 0x14 SWAP1 SLOAD SWAP1 PUSH2 0x100 EXP SWAP1 DIV PUSH1 0xFF AND DUP2 JUMP JUMPDEST PUSH1 0x0 DUP2 DUP4 PUSH2 0x499 SWAP2 SWAP1 PUSH2 0xCEC JUMP JUMPDEST SWAP1 POP SWAP3 SWAP2 POP POP JUMP JUMPDEST PUSH1 0x0 DUP2 DUP4 PUSH2 0x4AF SWAP2 SWAP1 PUSH2 0xD75 JUMP JUMPDEST SWAP1 POP SWAP3 SWAP2 POP POP JUMP JUMPDEST PUSH1 0x0 DUP2 DUP4 PUSH2 0x4C5 SWAP2 SWAP1 PUSH2 0xDA6 JUMP JUMPDEST SWAP1 POP SWAP3 SWAP2 POP POP JUMP JUMPDEST PUSH1 0x0 DUP2 DUP4 PUSH2 0x4DB SWAP2 SWAP1 PUSH2 0xC96 JUMP JUMPDEST SWAP1 POP SWAP3 SWAP2 POP POP JUMP JUMPDEST PUSH1 0x2 PUSH1 0x0 SWAP1 SLOAD SWAP1 PUSH2 0x100 EXP SWAP1 DIV PUSH20 0xFFFFFFFFFFFFFFFFFFFFFFFFFFFFFFFFFFFFFFFF AND DUP2 JUMP JUMPDEST DUP1 PUSH1 0x2 PUSH1 0x14 PUSH2 0x100 EXP DUP2 SLOAD DUP2 PUSH1 0xFF MUL NOT AND SWAP1 DUP4 ISZERO ISZERO MUL OR SWAP1 SSTORE POP PUSH2 0x52B PUSH2 0x52E JUMP JUMPDEST POP JUMP JUMPDEST PUSH1 0x1 PUSH1 0x3 PUSH1 0x0 CALLER PUSH20 0xFFFFFFFFFFFFFFFFFFFFFFFFFFFFFFFFFFFFFFFF AND PUSH20 0xFFFFFFFFFFFFFFFFFFFFFFFFFFFFFFFFFFFFFFFF AND DUP2 MSTORE PUSH1 0x20 ADD SWAP1 DUP2 MSTORE PUSH1 0x20 ADD PUSH1 0x0 KECCAK256 PUSH1 0x0 DUP3 DUP3 SLOAD PUSH2 0x57E SWAP2 SWAP1 PUSH2 0xC96 JUMP JUMPDEST SWAP3 POP POP DUP2 SWAP1 SSTORE POP JUMP JUMPDEST DUP3 DUP1 SLOAD PUSH2 0x593 SWAP1 PUSH2 0xAB7 JUMP JUMPDEST SWAP1 PUSH1 0x0 MSTORE PUSH1 0x20 PUSH1 0x0 KECCAK256 SWAP1 PUSH1 0x1F ADD PUSH1 0x20 SWAP1 DIV DUP2 ADD SWAP3 DUP3 PUSH2 0x5B5 JUMPI PUSH1 0x0 DUP6 SSTORE PUSH2 0x5FC JUMP JUMPDEST DUP3 PUSH1 0x1F LT PUSH2 0x5CE JUMPI DUP1 MLOAD PUSH1 0xFF NOT AND DUP4 DUP1 ADD OR DUP6 SSTORE PUSH2 0x5FC JUMP JUMPDEST DUP3 DUP1 ADD PUSH1 0x1 ADD DUP6 SSTORE DUP3 ISZERO PUSH2 0x5FC JUMPI SWAP2 DUP3 ADD JUMPDEST DUP3 DUP2 GT ISZERO PUSH2 0x5FB JUMPI DUP3 MLOAD DUP3 SSTORE SWAP2 PUSH1 0x20 ADD SWAP2 SWAP1 PUSH1 0x1 ADD SWAP1 PUSH2 0x5E0 JUMP JUMPDEST JUMPDEST POP SWAP1 POP PUSH2 0x609 SWAP2 SWAP1 PUSH2 0x60D JUMP JUMPDEST POP SWAP1 JUMP JUMPDEST JUMPDEST DUP1 DUP3 GT ISZERO PUSH2 0x626 JUMPI PUSH1 0x0 DUP2 PUSH1 0x0 SWAP1 SSTORE POP PUSH1 0x1 ADD PUSH2 0x60E JUMP JUMPDEST POP SWAP1 JUMP JUMPDEST PUSH1 0x0 DUP2 MLOAD SWAP1 POP SWAP2 SWAP1 POP JUMP JUMPDEST PUSH1 0x0 DUP3 DUP3 MSTORE PUSH1 0x20 DUP3 ADD SWAP1 POP SWAP3 SWAP2 POP POP JUMP JUMPDEST PUSH1 0x0 JUMPDEST DUP4 DUP2 LT ISZERO PUSH2 0x664 JUMPI DUP1 DUP3 ADD MLOAD DUP2 DUP5 ADD MSTORE PUSH1 0x20 DUP2 ADD SWAP1 POP PUSH2 0x649 JUMP JUMPDEST DUP4 DUP2 GT ISZERO PUSH2 0x673 JUMPI PUSH1 0x0 DUP5 DUP5 ADD MSTORE JUMPDEST POP POP POP POP JUMP JUMPDEST PUSH1 0x0 PUSH1 0x1F NOT PUSH1 0x1F DUP4 ADD AND SWAP1 POP SWAP2 SWAP1 POP JUMP JUMPDEST PUSH1 0x0 PUSH2 0x695 DUP3 PUSH2 0x62A JUMP JUMPDEST PUSH2 0x69F DUP2 DUP6 PUSH2 0x635 JUMP JUMPDEST SWAP4 POP PUSH2 0x6AF DUP2 DUP6 PUSH1 0x20 DUP7 ADD PUSH2 0x646 JUMP JUMPDEST PUSH2 0x6B8 DUP2 PUSH2 0x679 JUMP JUMPDEST DUP5 ADD SWAP2 POP POP SWAP3 SWAP2 POP POP JUMP JUMPDEST PUSH1 0x0 PUSH1 0x20 DUP3 ADD SWAP1 POP DUP2 DUP2 SUB PUSH1 0x0 DUP4 ADD MSTORE PUSH2 0x6DD DUP2 DUP5 PUSH2 0x68A JUMP JUMPDEST SWAP1 POP SWAP3 SWAP2 POP POP JUMP JUMPDEST PUSH1 0x0 PUSH1 0x40 MLOAD SWAP1 POP SWAP1 JUMP JUMPDEST PUSH1 0x0 DUP1 REVERT JUMPDEST PUSH1 0x0 DUP1 REVERT JUMPDEST PUSH1 0x0 DUP2 SWAP1 POP SWAP2 SWAP1 POP JUMP JUMPDEST PUSH2 0x70C DUP2 PUSH2 0x6F9 JUMP JUMPDEST DUP2 EQ PUSH2 0x717 JUMPI PUSH1 0x0 DUP1 REVERT JUMPDEST POP JUMP JUMPDEST PUSH1 0x0 DUP2 CALLDATALOAD SWAP1 POP PUSH2 0x729 DUP2 PUSH2 0x703 JUMP JUMPDEST SWAP3 SWAP2 POP POP JUMP JUMPDEST PUSH1 0x0 DUP1 PUSH1 0x40 DUP4 DUP6 SUB SLT ISZERO PUSH2 0x746 JUMPI PUSH2 0x745 PUSH2 0x6EF JUMP JUMPDEST JUMPDEST PUSH1 0x0 PUSH2 0x754 DUP6 DUP3 DUP7 ADD PUSH2 0x71A JUMP JUMPDEST SWAP3 POP POP PUSH1 0x20 PUSH2 0x765 DUP6 DUP3 DUP7 ADD PUSH2 0x71A JUMP JUMPDEST SWAP2 POP POP SWAP3 POP SWAP3 SWAP1 POP JUMP JUMPDEST PUSH2 0x778 DUP2 PUSH2 0x6F9 JUMP JUMPDEST DUP3 MSTORE POP POP JUMP JUMPDEST PUSH1 0x0 PUSH1 0x20 DUP3 ADD SWAP1 POP PUSH2 0x793 PUSH1 0x0 DUP4 ADD DUP5 PUSH2 0x76F JUMP JUMPDEST SWAP3 SWAP2 POP POP JUMP JUMPDEST PUSH1 0x0 PUSH1 0x20 DUP3 DUP5 SUB SLT ISZERO PUSH2 0x7AF JUMPI PUSH2 0x7AE PUSH2 0x6EF JUMP JUMPDEST JUMPDEST PUSH1 0x0 PUSH2 0x7BD DUP5 DUP3 DUP6 ADD PUSH2 0x71A JUMP JUMPDEST SWAP2 POP POP SWAP3 SWAP2 POP POP JUMP JUMPDEST PUSH1 0x0 DUP1 REVERT JUMPDEST PUSH1 0x0 DUP1 REVERT JUMPDEST PUSH32 0x4E487B7100000000000000000000000000000000000000000000000000000000 PUSH1 0x0 MSTORE PUSH1 0x41 PUSH1 0x4 MSTORE PUSH1 0x24 PUSH1 0x0 REVERT JUMPDEST PUSH2 0x808 DUP3 PUSH2 0x679 JUMP JUMPDEST DUP2 ADD DUP2 DUP2 LT PUSH8 0xFFFFFFFFFFFFFFFF DUP3 GT OR ISZERO PUSH2 0x827 JUMPI PUSH2 0x826 PUSH2 0x7D0 JUMP JUMPDEST JUMPDEST DUP1 PUSH1 0x40 MSTORE POP POP POP JUMP JUMPDEST PUSH1 0x0 PUSH2 0x83A PUSH2 0x6E5 JUMP JUMPDEST SWAP1 POP PUSH2 0x846 DUP3 DUP3 PUSH2 0x7FF JUMP JUMPDEST SWAP2 SWAP1 POP JUMP JUMPDEST PUSH1 0x0 PUSH8 0xFFFFFFFFFFFFFFFF DUP3 GT ISZERO PUSH2 0x866 JUMPI PUSH2 0x865 PUSH2 0x7D0 JUMP JUMPDEST JUMPDEST PUSH2 0x86F DUP3 PUSH2 0x679 JUMP JUMPDEST SWAP1 POP PUSH1 0x20 DUP2 ADD SWAP1 POP SWAP2 SWAP1 POP JUMP JUMPDEST DUP3 DUP2 DUP4 CALLDATACOPY PUSH1 0x0 DUP4 DUP4 ADD MSTORE POP POP POP JUMP JUMPDEST PUSH1 0x0 PUSH2 0x89E PUSH2 0x899 DUP5 PUSH2 0x84B JUMP JUMPDEST PUSH2 0x830 JUMP JUMPDEST SWAP1 POP DUP3 DUP2 MSTORE PUSH1 0x20 DUP2 ADD DUP5 DUP5 DUP5 ADD GT ISZERO PUSH2 0x8BA JUMPI PUSH2 0x8B9 PUSH2 0x7CB JUMP JUMPDEST JUMPDEST PUSH2 0x8C5 DUP5 DUP3 DUP6 PUSH2 0x87C JUMP JUMPDEST POP SWAP4 SWAP3 POP POP POP JUMP JUMPDEST PUSH1 0x0 DUP3 PUSH1 0x1F DUP4 ADD SLT PUSH2 0x8E2 JUMPI PUSH2 0x8E1 PUSH2 0x7C6 JUMP JUMPDEST JUMPDEST DUP2 CALLDATALOAD PUSH2 0x8F2 DUP5 DUP3 PUSH1 0x20 DUP7 ADD PUSH2 0x88B JUMP JUMPDEST SWAP2 POP POP SWAP3 SWAP2 POP POP JUMP JUMPDEST PUSH1 0x0 PUSH1 0x20 DUP3 DUP5 SUB SLT ISZERO PUSH2 0x911 JUMPI PUSH2 0x910 PUSH2 0x6EF JUMP JUMPDEST JUMPDEST PUSH1 0x0 DUP3 ADD CALLDATALOAD PUSH8 0xFFFFFFFFFFFFFFFF DUP2 GT ISZERO PUSH2 0x92F JUMPI PUSH2 0x92E PUSH2 0x6F4 JUMP JUMPDEST JUMPDEST PUSH2 0x93B DUP5 DUP3 DUP6 ADD PUSH2 0x8CD JUMP JUMPDEST SWAP2 POP POP SWAP3 SWAP2 POP POP JUMP JUMPDEST PUSH1 0x0 PUSH20 0xFFFFFFFFFFFFFFFFFFFFFFFFFFFFFFFFFFFFFFFF DUP3 AND SWAP1 POP SWAP2 SWAP1 POP JUMP JUMPDEST PUSH1 0x0 PUSH2 0x96F DUP3 PUSH2 0x944 JUMP JUMPDEST SWAP1 POP SWAP2 SWAP1 POP JUMP JUMPDEST PUSH2 0x97F DUP2 PUSH2 0x964 JUMP JUMPDEST DUP2 EQ PUSH2 0x98A JUMPI PUSH1 0x0 DUP1 REVERT JUMPDEST POP JUMP JUMPDEST PUSH1 0x0 DUP2 CALLDATALOAD SWAP1 POP PUSH2 0x99C DUP2 PUSH2 0x976 JUMP JUMPDEST SWAP3 SWAP2 POP POP JUMP JUMPDEST PUSH1 0x0 PUSH1 0x20 DUP3 DUP5 SUB SLT ISZERO PUSH2 0x9B8 JUMPI PUSH2 0x9B7 PUSH2 0x6EF JUMP JUMPDEST JUMPDEST PUSH1 0x0 PUSH2 0x9C6 DUP5 DUP3 DUP6 ADD PUSH2 0x98D JUMP JUMPDEST SWAP2 POP POP SWAP3 SWAP2 POP POP JUMP JUMPDEST PUSH1 0x0 DUP2 ISZERO ISZERO SWAP1 POP SWAP2 SWAP1 POP JUMP JUMPDEST PUSH2 0x9E4 DUP2 PUSH2 0x9CF JUMP JUMPDEST DUP3 MSTORE POP POP JUMP JUMPDEST PUSH1 0x0 PUSH1 0x20 DUP3 ADD SWAP1 POP PUSH2 0x9FF PUSH1 0x0 DUP4 ADD DUP5 PUSH2 0x9DB JUMP JUMPDEST SWAP3 SWAP2 POP POP JUMP JUMPDEST PUSH2 0xA0E DUP2 PUSH2 0x964 JUMP JUMPDEST DUP3 MSTORE POP POP JUMP JUMPDEST PUSH1 0x0 PUSH1 0x20 DUP3 ADD SWAP1 POP PUSH2 0xA29 PUSH1 0x0 DUP4 ADD DUP5 PUSH2 0xA05 JUMP JUMPDEST SWAP3 SWAP2 POP POP JUMP JUMPDEST PUSH2 0xA38 DUP2 PUSH2 0x9CF JUMP JUMPDEST DUP2 EQ PUSH2 0xA43 JUMPI PUSH1 0x0 DUP1 REVERT JUMPDEST POP JUMP JUMPDEST PUSH1 0x0 DUP2 CALLDATALOAD SWAP1 POP PUSH2 0xA55 DUP2 PUSH2 0xA2F JUMP JUMPDEST SWAP3 SWAP2 POP POP JUMP JUMPDEST PUSH1 0x0 PUSH1 0x20 DUP3 DUP5 SUB SLT ISZERO PUSH2 0xA71 JUMPI PUSH2 0xA70 PUSH2 0x6EF JUMP JUMPDEST JUMPDEST PUSH1 0x0 PUSH2 0xA7F DUP5 DUP3 DUP6 ADD PUSH2 0xA46 JUMP JUMPDEST SWAP2 POP POP SWAP3 SWAP2 POP POP JUMP JUMPDEST PUSH32 0x4E487B7100000000000000000000000000000000000000000000000000000000 PUSH1 0x0 MSTORE PUSH1 0x22 PUSH1 0x4 MSTORE PUSH1 0x24 PUSH1 0x0 REVERT JUMPDEST PUSH1 0x0 PUSH1 0x2 DUP3 DIV SWAP1 POP PUSH1 0x1 DUP3 AND DUP1 PUSH2 0xACF JUMPI PUSH1 0x7F DUP3 AND SWAP2 POP JUMPDEST PUSH1 0x20 DUP3 LT DUP2 EQ ISZERO PUSH2 0xAE3 JUMPI PUSH2 0xAE2 PUSH2 0xA88 JUMP JUMPDEST JUMPDEST POP SWAP2 SWAP1 POP JUMP JUMPDEST PUSH32 0x4E487B7100000000000000000000000000000000000000000000000000000000 PUSH1 0x0 MSTORE PUSH1 0x11 PUSH1 0x4 MSTORE PUSH1 0x24 PUSH1 0x0 REVERT JUMPDEST PUSH1 0x0 DUP2 PUSH1 0x1 SHR SWAP1 POP SWAP2 SWAP1 POP JUMP JUMPDEST PUSH1 0x0 DUP1 DUP3 SWAP2 POP DUP4 SWAP1 POP JUMPDEST PUSH1 0x1 DUP6 GT ISZERO PUSH2 0xB6F JUMPI DUP1 DUP7 DIV DUP2 GT ISZERO PUSH2 0xB4B JUMPI PUSH2 0xB4A PUSH2 0xAE9 JUMP JUMPDEST JUMPDEST PUSH1 0x1 DUP6 AND ISZERO PUSH2 0xB5A JUMPI DUP1 DUP3 MUL SWAP2 POP JUMPDEST DUP1 DUP2 MUL SWAP1 POP PUSH2 0xB68 DUP6 PUSH2 0xB18 JUMP JUMPDEST SWAP5 POP PUSH2 0xB2F JUMP JUMPDEST SWAP5 POP SWAP5 SWAP3 POP POP POP JUMP JUMPDEST PUSH1 0x0 DUP3 PUSH2 0xB88 JUMPI PUSH1 0x1 SWAP1 POP PUSH2 0xC44 JUMP JUMPDEST DUP2 PUSH2 0xB96 JUMPI PUSH1 0x0 SWAP1 POP PUSH2 0xC44 JUMP JUMPDEST DUP2 PUSH1 0x1 DUP2 EQ PUSH2 0xBAC JUMPI PUSH1 0x2 DUP2 EQ PUSH2 0xBB6 JUMPI PUSH2 0xBE5 JUMP JUMPDEST PUSH1 0x1 SWAP2 POP POP PUSH2 0xC44 JUMP JUMPDEST PUSH1 0xFF DUP5 GT ISZERO PUSH2 0xBC8 JUMPI PUSH2 0xBC7 PUSH2 0xAE9 JUMP JUMPDEST JUMPDEST DUP4 PUSH1 0x2 EXP SWAP2 POP DUP5 DUP3 GT ISZERO PUSH2 0xBDF JUMPI PUSH2 0xBDE PUSH2 0xAE9 JUMP JUMPDEST JUMPDEST POP PUSH2 0xC44 JUMP JUMPDEST POP PUSH1 0x20 DUP4 LT PUSH2 0x133 DUP4 LT AND PUSH1 0x4E DUP5 LT PUSH1 0xB DUP5 LT AND OR ISZERO PUSH2 0xC1A JUMPI DUP3 DUP3 EXP SWAP1 POP DUP4 DUP2 GT ISZERO PUSH2 0xC15 JUMPI PUSH2 0xC14 PUSH2 0xAE9 JUMP JUMPDEST JUMPDEST PUSH2 0xC44 JUMP JUMPDEST PUSH2 0xC27 DUP5 DUP5 DUP5 PUSH1 0x1 PUSH2 0xB25 JUMP JUMPDEST SWAP3 POP SWAP1 POP DUP2 DUP5 DIV DUP2 GT ISZERO PUSH2 0xC3E JUMPI PUSH2 0xC3D PUSH2 0xAE9 JUMP JUMPDEST JUMPDEST DUP2 DUP2 MUL SWAP1 POP JUMPDEST SWAP4 SWAP3 POP POP POP JUMP JUMPDEST PUSH1 0x0 PUSH2 0xC56 DUP3 PUSH2 0x6F9 JUMP JUMPDEST SWAP2 POP PUSH2 0xC61 DUP4 PUSH2 0x6F9 JUMP JUMPDEST SWAP3 POP PUSH2 0xC8E PUSH32 0xFFFFFFFFFFFFFFFFFFFFFFFFFFFFFFFFFFFFFFFFFFFFFFFFFFFFFFFFFFFFFFFF DUP5 DUP5 PUSH2 0xB78 JUMP JUMPDEST SWAP1 POP SWAP3 SWAP2 POP POP JUMP JUMPDEST PUSH1 0x0 PUSH2 0xCA1 DUP3 PUSH2 0x6F9 JUMP JUMPDEST SWAP2 POP PUSH2 0xCAC DUP4 PUSH2 0x6F9 JUMP JUMPDEST SWAP3 POP DUP3 PUSH32 0xFFFFFFFFFFFFFFFFFFFFFFFFFFFFFFFFFFFFFFFFFFFFFFFFFFFFFFFFFFFFFFFF SUB DUP3 GT ISZERO PUSH2 0xCE1 JUMPI PUSH2 0xCE0 PUSH2 0xAE9 JUMP JUMPDEST JUMPDEST DUP3 DUP3 ADD SWAP1 POP SWAP3 SWAP2 POP POP JUMP JUMPDEST PUSH1 0x0 PUSH2 0xCF7 DUP3 PUSH2 0x6F9 JUMP JUMPDEST SWAP2 POP PUSH2 0xD02 DUP4 PUSH2 0x6F9 JUMP JUMPDEST SWAP3 POP DUP2 PUSH32 0xFFFFFFFFFFFFFFFFFFFFFFFFFFFFFFFFFFFFFFFFFFFFFFFFFFFFFFFFFFFFFFFF DIV DUP4 GT DUP3 ISZERO ISZERO AND ISZERO PUSH2 0xD3B JUMPI PUSH2 0xD3A PUSH2 0xAE9 JUMP JUMPDEST JUMPDEST DUP3 DUP3 MUL SWAP1 POP SWAP3 SWAP2 POP POP JUMP JUMPDEST PUSH32 0x4E487B7100000000000000000000000000000000000000000000000000000000 PUSH1 0x0 MSTORE PUSH1 0x12 PUSH1 0x4 MSTORE PUSH1 0x24 PUSH1 0x0 REVERT JUMPDEST PUSH1 0x0 PUSH2 0xD80 DUP3 PUSH2 0x6F9 JUMP JUMPDEST SWAP2 POP PUSH2 0xD8B DUP4 PUSH2 0x6F9 JUMP JUMPDEST SWAP3 POP DUP3 PUSH2 0xD9B JUMPI PUSH2 0xD9A PUSH2 0xD46 JUMP JUMPDEST JUMPDEST DUP3 DUP3 DIV SWAP1 POP SWAP3 SWAP2 POP POP JUMP JUMPDEST PUSH1 0x0 PUSH2 0xDB1 DUP3 PUSH2 0x6F9 JUMP JUMPDEST SWAP2 POP PUSH2 0xDBC DUP4 PUSH2 0x6F9 JUMP JUMPDEST SWAP3 POP DUP3 DUP3 LT ISZERO PUSH2 0xDCF JUMPI PUSH2 0xDCE PUSH2 0xAE9 JUMP JUMPDEST JUMPDEST DUP3 DUP3 SUB SWAP1 POP SWAP3 SWAP2 POP POP JUMP INVALID LOG2 PUSH5 0x6970667358 0x22 SLT KECCAK256 0xE7 0xE2 PUSH12 0x41B426CEFFC188DDB1777D89 SWAP7 NOT 0xF6 0xDE 0xFB PUSH3 0x93E265 DUP6 LOG0 PUSH11 0x60A5B49A1264736F6C6343 STOP ADDMOD MULMOD STOP CALLER "
		},
		"gasEstimates": {
			"creation": {
				"codeDepositCost": "720000",
				"executionCost": "753",
				"totalCost": "720753"
			},
			"external": {
				"answer()": "2566",
				"div(uint256,uint256)": "infinite",
				"hasInteracted(address)": "2903",
				"mult(uint256,uint256)": "infinite",
				"number()": "2452",
				"pow(uint256,uint256)": "infinite",
				"setAnswer(bool)": "infinite",
				"setNumber(uint256)": "infinite",
				"setText(string)": "infinite",
				"setUserAddress()": "infinite",
				"sub(uint256,uint256)": "infinite",
				"sum(uint256,uint256)": "infinite",
				"sumStored(uint256)": "infinite",
				"text()": "infinite",
				"userAddress()": "2580"
			},
			"internal": {
				"setInteracted()": "infinite"
			}
		},
		"methodIdentifiers": {
			"answer()": "85bb7d69",
			"div(uint256,uint256)": "a391c15b",
			"hasInteracted(address)": "8187f846",
			"mult(uint256,uint256)": "9aa727f6",
			"number()": "8381f58a",
			"pow(uint256,uint256)": "2e4c697f",
			"setAnswer(bool)": "f01b7dd2",
			"setNumber(uint256)": "3fb5c1cb",
			"setText(string)": "5d3a1f9d",
			"setUserAddress()": "62dd4554",
			"sub(uint256,uint256)": "b67d77c5",
			"sum(uint256,uint256)": "cad0899b",
			"sumStored(uint256)": "77954162",
			"text()": "1f1bd692",
			"userAddress()": "e4128fb3"
		}
	},
	"abi": [
		{
			"inputs": [],
			"name": "answer",
			"outputs": [
				{
					"internalType": "bool",
					"name": "",
					"type": "bool"
				}
			],
			"stateMutability": "view",
			"type": "function"
		},
		{
			"inputs": [
				{
					"internalType": "uint256",
					"name": "num1",
					"type": "uint256"
				},
				{
					"internalType": "uint256",
					"name": "num2",
					"type": "uint256"
				}
			],
			"name": "div",
			"outputs": [
				{
					"internalType": "uint256",
					"name": "",
					"type": "uint256"
				}
			],
			"stateMutability": "pure",
			"type": "function"
		},
		{
			"inputs": [
				{
					"internalType": "address",
					"name": "",
					"type": "address"
				}
			],
			"name": "hasInteracted",
			"outputs": [
				{
					"internalType": "uint256",
					"name": "",
					"type": "uint256"
				}
			],
			"stateMutability": "view",
			"type": "function"
		},
		{
			"inputs": [
				{
					"internalType": "uint256",
					"name": "num1",
					"type": "uint256"
				},
				{
					"internalType": "uint256",
					"name": "num2",
					"type": "uint256"
				}
			],
			"name": "mult",
			"outputs": [
				{
					"internalType": "uint256",
					"name": "",
					"type": "uint256"
				}
			],
			"stateMutability": "pure",
			"type": "function"
		},
		{
			"inputs": [],
			"name": "number",
			"outputs": [
				{
					"internalType": "uint256",
					"name": "",
					"type": "uint256"
				}
			],
			"stateMutability": "view",
			"type": "function"
		},
		{
			"inputs": [
				{
					"internalType": "uint256",
					"name": "num1",
					"type": "uint256"
				},
				{
					"internalType": "uint256",
					"name": "num2",
					"type": "uint256"
				}
			],
			"name": "pow",
			"outputs": [
				{
					"internalType": "uint256",
					"name": "",
					"type": "uint256"
				}
			],
			"stateMutability": "pure",
			"type": "function"
		},
		{
			"inputs": [
				{
					"internalType": "bool",
					"name": "trueOrFalse",
					"type": "bool"
				}
			],
			"name": "setAnswer",
			"outputs": [],
			"stateMutability": "nonpayable",
			"type": "function"
		},
		{
			"inputs": [
				{
					"internalType": "uint256",
					"name": "myNumber",
					"type": "uint256"
				}
			],
			"name": "setNumber",
			"outputs": [],
			"stateMutability": "nonpayable",
			"type": "function"
		},
		{
			"inputs": [
				{
					"internalType": "string",
					"name": "myText",
					"type": "string"
				}
			],
			"name": "setText",
			"outputs": [],
			"stateMutability": "nonpayable",
			"type": "function"
		},
		{
			"inputs": [],
			"name": "setUserAddress",
			"outputs": [],
			"stateMutability": "nonpayable",
			"type": "function"
		},
		{
			"inputs": [
				{
					"internalType": "uint256",
					"name": "num1",
					"type": "uint256"
				},
				{
					"internalType": "uint256",
					"name": "num2",
					"type": "uint256"
				}
			],
			"name": "sub",
			"outputs": [
				{
					"internalType": "uint256",
					"name": "",
					"type": "uint256"
				}
			],
			"stateMutability": "pure",
			"type": "function"
		},
		{
			"inputs": [
				{
					"internalType": "uint256",
					"name": "num1",
					"type": "uint256"
				},
				{
					"internalType": "uint256",
					"name": "num2",
					"type": "uint256"
				}
			],
			"name": "sum",
			"outputs": [
				{
					"internalType": "uint256",
					"name": "",
					"type": "uint256"
				}
			],
			"stateMutability": "pure",
			"type": "function"
		},
		{
			"inputs": [
				{
					"internalType": "uint256",
					"name": "num1",
					"type": "uint256"
				}
			],
			"name": "sumStored",
			"outputs": [
				{
					"internalType": "uint256",
					"name": "",
					"type": "uint256"
				}
			],
			"stateMutability": "view",
			"type": "function"
		},
		{
			"inputs": [],
			"name": "text",
			"outputs": [
				{
					"internalType": "string",
					"name": "",
					"type": "string"
				}
			],
			"stateMutability": "view",
			"type": "function"
		},
		{
			"inputs": [],
			"name": "userAddress",
			"outputs": [
				{
					"internalType": "address",
					"name": "",
					"type": "address"
				}
			],
			"stateMutability": "view",
			"type": "function"
		}
	]
}